{
  "contractName": "LYNKToken",
  "abi": [
    {
      "constant": true,
      "inputs": [],
      "name": "name",
      "outputs": [
        {
          "name": "",
          "type": "string"
        }
      ],
      "payable": false,
      "stateMutability": "view",
      "type": "function"
    },
    {
      "constant": false,
      "inputs": [
        {
          "name": "_spender",
          "type": "address"
        },
        {
          "name": "_value",
          "type": "uint256"
        }
      ],
      "name": "approve",
      "outputs": [
        {
          "name": "",
          "type": "bool"
        }
      ],
      "payable": false,
      "stateMutability": "nonpayable",
      "type": "function"
    },
    {
      "constant": true,
      "inputs": [],
      "name": "totalSupply",
      "outputs": [
        {
          "name": "",
          "type": "uint256"
        }
      ],
      "payable": false,
      "stateMutability": "view",
      "type": "function"
    },
    {
      "constant": true,
      "inputs": [],
      "name": "icoEndDate",
      "outputs": [
        {
          "name": "",
          "type": "uint256"
        }
      ],
      "payable": false,
      "stateMutability": "view",
      "type": "function"
    },
    {
      "constant": true,
      "inputs": [],
      "name": "INITIAL_SUPPLY",
      "outputs": [
        {
          "name": "",
          "type": "uint256"
        }
      ],
      "payable": false,
      "stateMutability": "view",
      "type": "function"
    },
    {
      "constant": true,
      "inputs": [],
      "name": "decimals",
      "outputs": [
        {
          "name": "",
          "type": "uint8"
        }
      ],
      "payable": false,
      "stateMutability": "view",
      "type": "function"
    },
    {
      "constant": true,
      "inputs": [],
      "name": "tokenSold",
      "outputs": [
        {
          "name": "",
          "type": "uint256"
        }
      ],
      "payable": false,
      "stateMutability": "view",
      "type": "function"
    },
    {
      "constant": true,
      "inputs": [],
      "name": "addressFounders",
      "outputs": [
        {
          "name": "",
          "type": "address"
        }
      ],
      "payable": false,
      "stateMutability": "view",
      "type": "function"
    },
    {
      "constant": true,
      "inputs": [],
      "name": "SECONDS_IN_YEAR",
      "outputs": [
        {
          "name": "",
          "type": "uint256"
        }
      ],
      "payable": false,
      "stateMutability": "view",
      "type": "function"
    },
    {
      "constant": false,
      "inputs": [
        {
          "name": "_spender",
          "type": "address"
        },
        {
          "name": "_subtractedValue",
          "type": "uint256"
        }
      ],
      "name": "decreaseApproval",
      "outputs": [
        {
          "name": "",
          "type": "bool"
        }
      ],
      "payable": false,
      "stateMutability": "nonpayable",
      "type": "function"
    },
    {
      "constant": true,
      "inputs": [
        {
          "name": "_owner",
          "type": "address"
        }
      ],
      "name": "balanceOf",
      "outputs": [
        {
          "name": "balance",
          "type": "uint256"
        }
      ],
      "payable": false,
      "stateMutability": "view",
      "type": "function"
    },
    {
      "constant": true,
      "inputs": [],
      "name": "tokensICO",
      "outputs": [
        {
          "name": "",
          "type": "uint256"
        }
      ],
      "payable": false,
      "stateMutability": "view",
      "type": "function"
    },
    {
      "constant": true,
      "inputs": [],
      "name": "tokensAdvisorsTeam",
      "outputs": [
        {
          "name": "",
          "type": "uint256"
        }
      ],
      "payable": false,
      "stateMutability": "view",
      "type": "function"
    },
    {
      "constant": true,
      "inputs": [],
      "name": "tokensMarketingBounty",
      "outputs": [
        {
          "name": "",
          "type": "uint256"
        }
      ],
      "payable": false,
      "stateMutability": "view",
      "type": "function"
    },
    {
      "constant": true,
      "inputs": [],
      "name": "symbol",
      "outputs": [
        {
          "name": "",
          "type": "string"
        }
      ],
      "payable": false,
      "stateMutability": "view",
      "type": "function"
    },
    {
      "constant": true,
      "inputs": [],
      "name": "addressMarketingBounty",
      "outputs": [
        {
          "name": "",
          "type": "address"
        }
      ],
      "payable": false,
      "stateMutability": "view",
      "type": "function"
    },
    {
      "constant": true,
      "inputs": [],
      "name": "addressRewardsPool",
      "outputs": [
        {
          "name": "",
          "type": "address"
        }
      ],
      "payable": false,
      "stateMutability": "view",
      "type": "function"
    },
    {
      "constant": true,
      "inputs": [],
      "name": "tokensFounders",
      "outputs": [
        {
          "name": "",
          "type": "uint256"
        }
      ],
      "payable": false,
      "stateMutability": "view",
      "type": "function"
    },
    {
      "constant": true,
      "inputs": [],
      "name": "addressSeedInvestors",
      "outputs": [
        {
          "name": "",
          "type": "address"
        }
      ],
      "payable": false,
      "stateMutability": "view",
      "type": "function"
    },
    {
      "constant": true,
      "inputs": [],
      "name": "addressICOManager",
      "outputs": [
        {
          "name": "",
          "type": "address"
        }
      ],
      "payable": false,
      "stateMutability": "view",
      "type": "function"
    },
    {
      "constant": true,
      "inputs": [],
      "name": "halted",
      "outputs": [
        {
          "name": "",
          "type": "bool"
        }
      ],
      "payable": false,
      "stateMutability": "view",
      "type": "function"
    },
    {
      "constant": true,
      "inputs": [],
      "name": "tokensRewardsPool",
      "outputs": [
        {
          "name": "",
          "type": "uint256"
        }
      ],
      "payable": false,
      "stateMutability": "view",
      "type": "function"
    },
    {
      "constant": true,
      "inputs": [],
      "name": "etherRaised",
      "outputs": [
        {
          "name": "",
          "type": "uint256"
        }
      ],
      "payable": false,
      "stateMutability": "view",
      "type": "function"
    },
    {
      "constant": false,
      "inputs": [
        {
          "name": "_spender",
          "type": "address"
        },
        {
          "name": "_addedValue",
          "type": "uint256"
        }
      ],
      "name": "increaseApproval",
      "outputs": [
        {
          "name": "",
          "type": "bool"
        }
      ],
      "payable": false,
      "stateMutability": "nonpayable",
      "type": "function"
    },
    {
      "constant": true,
      "inputs": [
        {
          "name": "_owner",
          "type": "address"
        },
        {
          "name": "_spender",
          "type": "address"
        }
      ],
      "name": "allowance",
      "outputs": [
        {
          "name": "",
          "type": "uint256"
        }
      ],
      "payable": false,
      "stateMutability": "view",
      "type": "function"
    },
    {
      "constant": true,
      "inputs": [],
      "name": "tokensSeedInvestors",
      "outputs": [
        {
          "name": "",
          "type": "uint256"
        }
      ],
      "payable": false,
      "stateMutability": "view",
      "type": "function"
    },
    {
      "constant": true,
      "inputs": [],
      "name": "addressAdvisorsTeam",
      "outputs": [
        {
          "name": "",
          "type": "address"
        }
      ],
      "payable": false,
      "stateMutability": "view",
      "type": "function"
    },
    {
      "inputs": [],
      "payable": false,
      "stateMutability": "nonpayable",
      "type": "constructor"
    },
    {
      "payable": true,
      "stateMutability": "payable",
      "type": "fallback"
    },
    {
      "anonymous": false,
      "inputs": [
        {
          "indexed": true,
          "name": "owner",
          "type": "address"
        },
        {
          "indexed": true,
          "name": "spender",
          "type": "address"
        },
        {
          "indexed": false,
          "name": "value",
          "type": "uint256"
        }
      ],
      "name": "Approval",
      "type": "event"
    },
    {
      "anonymous": false,
      "inputs": [
        {
          "indexed": true,
          "name": "from",
          "type": "address"
        },
        {
          "indexed": true,
          "name": "to",
          "type": "address"
        },
        {
          "indexed": false,
          "name": "value",
          "type": "uint256"
        }
      ],
      "name": "Transfer",
      "type": "event"
    },
    {
      "constant": false,
      "inputs": [],
      "name": "halt",
      "outputs": [],
      "payable": false,
      "stateMutability": "nonpayable",
      "type": "function"
    },
    {
      "constant": false,
      "inputs": [],
      "name": "unhalt",
      "outputs": [],
      "payable": false,
      "stateMutability": "nonpayable",
      "type": "function"
    },
    {
      "constant": false,
      "inputs": [
        {
          "name": "_to",
          "type": "address"
        },
        {
          "name": "_value",
          "type": "uint256"
        }
      ],
      "name": "transfer",
      "outputs": [
        {
          "name": "success",
          "type": "bool"
        }
      ],
      "payable": false,
      "stateMutability": "nonpayable",
      "type": "function"
    },
    {
      "constant": false,
      "inputs": [
        {
          "name": "_from",
          "type": "address"
        },
        {
          "name": "_to",
          "type": "address"
        },
        {
          "name": "_value",
          "type": "uint256"
        }
      ],
      "name": "transferFrom",
      "outputs": [
        {
          "name": "success",
          "type": "bool"
        }
      ],
      "payable": false,
      "stateMutability": "nonpayable",
      "type": "function"
    },
    {
      "constant": true,
      "inputs": [
        {
          "name": "_buyer",
          "type": "address"
        }
      ],
      "name": "identifyAddress",
      "outputs": [
        {
          "name": "",
          "type": "uint256"
        }
      ],
      "payable": false,
      "stateMutability": "view",
      "type": "function"
    }
  ],
  "bytecode": "0x60806040526000600360006101000a81548160ff02191690831515021790555060006004556000600555601260ff16600a0a631dcd650002600655601260ff16600a0a6311e1a30002600755601260ff16600a0a6298968002600855601260ff16600a0a6298968002600955601260ff16600a0a6298968002600a55601260ff16600a0a6301312d0002600b55601260ff16600a0a6308f0d18002600c557350207268ed986ffc756de2fb509c902557e902b4600d60006101000a81548173ffffffffffffffffffffffffffffffffffffffff021916908373ffffffffffffffffffffffffffffffffffffffff16021790555073df7e584a74fff446a6141ae342078a828ae65d23600e60006101000a81548173ffffffffffffffffffffffffffffffffffffffff021916908373ffffffffffffffffffffffffffffffffffffffff160217905550730afe6ededb967c7e0b189d7ce9375772be5fe59b600f60006101000a81548173ffffffffffffffffffffffffffffffffffffffff021916908373ffffffffffffffffffffffffffffffffffffffff160217905550739fc1c2f53ebe62d481fb9a2a8a75b09ac7399781601060006101000a81548173ffffffffffffffffffffffffffffffffffffffff021916908373ffffffffffffffffffffffffffffffffffffffff160217905550731c59788d7113bbfe04280e3b60c03646d9e449fe601160006101000a81548173ffffffffffffffffffffffffffffffffffffffff021916908373ffffffffffffffffffffffffffffffffffffffff16021790555073e784a570e8aec7aab58eb23a7d4db257f11306ca601260006101000a81548173ffffffffffffffffffffffffffffffffffffffff021916908373ffffffffffffffffffffffffffffffffffffffff1602179055503480156102a757600080fd5b50600654600181905550600754600080600d60009054906101000a900473ffffffffffffffffffffffffffffffffffffffff1673ffffffffffffffffffffffffffffffffffffffff1673ffffffffffffffffffffffffffffffffffffffff16815260200190815260200160002081905550600854600080600e60009054906101000a900473ffffffffffffffffffffffffffffffffffffffff1673ffffffffffffffffffffffffffffffffffffffff1673ffffffffffffffffffffffffffffffffffffffff16815260200190815260200160002081905550600954600080600f60009054906101000a900473ffffffffffffffffffffffffffffffffffffffff1673ffffffffffffffffffffffffffffffffffffffff1673ffffffffffffffffffffffffffffffffffffffff16815260200190815260200160002081905550600a54600080601060009054906101000a900473ffffffffffffffffffffffffffffffffffffffff1673ffffffffffffffffffffffffffffffffffffffff1673ffffffffffffffffffffffffffffffffffffffff16815260200190815260200160002081905550600b54600080601160009054906101000a900473ffffffffffffffffffffffffffffffffffffffff1673ffffffffffffffffffffffffffffffffffffffff1673ffffffffffffffffffffffffffffffffffffffff16815260200190815260200160002081905550600c54600080601260009054906101000a900473ffffffffffffffffffffffffffffffffffffffff1673ffffffffffffffffffffffffffffffffffffffff1673ffffffffffffffffffffffffffffffffffffffff16815260200190815260200160002081905550600d60009054906101000a900473ffffffffffffffffffffffffffffffffffffffff1673ffffffffffffffffffffffffffffffffffffffff163073ffffffffffffffffffffffffffffffffffffffff167fddf252ad1be2c89b69c2b068fc378daa952ba7f163c4a11628f55a4df523b3ef6007546040518082815260200191505060405180910390a3600e60009054906101000a900473ffffffffffffffffffffffffffffffffffffffff1673ffffffffffffffffffffffffffffffffffffffff163073ffffffffffffffffffffffffffffffffffffffff167fddf252ad1be2c89b69c2b068fc378daa952ba7f163c4a11628f55a4df523b3ef6008546040518082815260200191505060405180910390a3600f60009054906101000a900473ffffffffffffffffffffffffffffffffffffffff1673ffffffffffffffffffffffffffffffffffffffff163073ffffffffffffffffffffffffffffffffffffffff167fddf252ad1be2c89b69c2b068fc378daa952ba7f163c4a11628f55a4df523b3ef6009546040518082815260200191505060405180910390a3601060009054906101000a900473ffffffffffffffffffffffffffffffffffffffff1673ffffffffffffffffffffffffffffffffffffffff163073ffffffffffffffffffffffffffffffffffffffff167fddf252ad1be2c89b69c2b068fc378daa952ba7f163c4a11628f55a4df523b3ef600a546040518082815260200191505060405180910390a3601160009054906101000a900473ffffffffffffffffffffffffffffffffffffffff1673ffffffffffffffffffffffffffffffffffffffff163073ffffffffffffffffffffffffffffffffffffffff167fddf252ad1be2c89b69c2b068fc378daa952ba7f163c4a11628f55a4df523b3ef600b546040518082815260200191505060405180910390a3601260009054906101000a900473ffffffffffffffffffffffffffffffffffffffff1673ffffffffffffffffffffffffffffffffffffffff163073ffffffffffffffffffffffffffffffffffffffff167fddf252ad1be2c89b69c2b068fc378daa952ba7f163c4a11628f55a4df523b3ef600c546040518082815260200191505060405180910390a3612142806108606000396000f300608060405260043610610196576000357c0100000000000000000000000000000000000000000000000000000000900463ffffffff16806306fdde0314610198578063095ea7b31461022857806318160ddd1461028d57806323b872dd146102b85780632a62738b1461033d5780632ff2e9dc14610368578063313ce56714610393578063519ee19e146103c45780635451a1e1146103ef5780635dcc9391146104465780635ed7ca5b14610471578063661884631461048857806370a08231146104ed578063721ed9ec146105445780637654e0f11461056f578063805341001461059a5780638987e041146105f157806395d89b411461061c5780639e0ab6b9146106ac578063a424d90a14610703578063a4387f1b1461075a578063a5a3bdea14610785578063a9059cbb146107dc578063ac218c6d14610841578063b9b8af0b14610898578063bc3e9b1d146108c7578063cb3e64fd146108f2578063cd72ab6914610909578063d73dd62314610934578063dd62ed3e14610999578063f08e7e7314610a10578063fa63f11b14610a3b575b005b3480156101a457600080fd5b506101ad610a92565b6040518080602001828103825283818151815260200191508051906020019080838360005b838110156101ed5780820151818401526020810190506101d2565b50505050905090810190601f16801561021a5780820380516001836020036101000a031916815260200191505b509250505060405180910390f35b34801561023457600080fd5b50610273600480360381019080803573ffffffffffffffffffffffffffffffffffffffff16906020019092919080359060200190929190505050610acb565b604051808215151515815260200191505060405180910390f35b34801561029957600080fd5b506102a2610bbd565b6040518082815260200191505060405180910390f35b3480156102c457600080fd5b50610323600480360381019080803573ffffffffffffffffffffffffffffffffffffffff169060200190929190803573ffffffffffffffffffffffffffffffffffffffff16906020019092919080359060200190929190505050610bc7565b604051808215151515815260200191505060405180910390f35b34801561034957600080fd5b50610352610ec8565b6040518082815260200191505060405180910390f35b34801561037457600080fd5b5061037d610ed0565b6040518082815260200191505060405180910390f35b34801561039f57600080fd5b506103a8610ed6565b604051808260ff1660ff16815260200191505060405180910390f35b3480156103d057600080fd5b506103d9610edb565b6040518082815260200191505060405180910390f35b3480156103fb57600080fd5b50610404610ee1565b604051808273ffffffffffffffffffffffffffffffffffffffff1673ffffffffffffffffffffffffffffffffffffffff16815260200191505060405180910390f35b34801561045257600080fd5b5061045b610f07565b6040518082815260200191505060405180910390f35b34801561047d57600080fd5b50610486610f0e565b005b34801561049457600080fd5b506104d3600480360381019080803573ffffffffffffffffffffffffffffffffffffffff16906020019092919080359060200190929190505050610fe3565b604051808215151515815260200191505060405180910390f35b3480156104f957600080fd5b5061052e600480360381019080803573ffffffffffffffffffffffffffffffffffffffff169060200190929190505050611274565b6040518082815260200191505060405180910390f35b34801561055057600080fd5b506105596112bc565b6040518082815260200191505060405180910390f35b34801561057b57600080fd5b506105846112c2565b6040518082815260200191505060405180910390f35b3480156105a657600080fd5b506105db600480360381019080803573ffffffffffffffffffffffffffffffffffffffff1690602001909291905050506112c8565b6040518082815260200191505060405180910390f35b3480156105fd57600080fd5b5061060661138b565b6040518082815260200191505060405180910390f35b34801561062857600080fd5b50610631611391565b6040518080602001828103825283818151815260200191508051906020019080838360005b83811015610671578082015181840152602081019050610656565b50505050905090810190601f16801561069e5780820380516001836020036101000a031916815260200191505b509250505060405180910390f35b3480156106b857600080fd5b506106c16113ca565b604051808273ffffffffffffffffffffffffffffffffffffffff1673ffffffffffffffffffffffffffffffffffffffff16815260200191505060405180910390f35b34801561070f57600080fd5b506107186113f0565b604051808273ffffffffffffffffffffffffffffffffffffffff1673ffffffffffffffffffffffffffffffffffffffff16815260200191505060405180910390f35b34801561076657600080fd5b5061076f611416565b6040518082815260200191505060405180910390f35b34801561079157600080fd5b5061079a61141c565b604051808273ffffffffffffffffffffffffffffffffffffffff1673ffffffffffffffffffffffffffffffffffffffff16815260200191505060405180910390f35b3480156107e857600080fd5b50610827600480360381019080803573ffffffffffffffffffffffffffffffffffffffff16906020019092919080359060200190929190505050611442565b604051808215151515815260200191505060405180910390f35b34801561084d57600080fd5b5061085661173d565b604051808273ffffffffffffffffffffffffffffffffffffffff1673ffffffffffffffffffffffffffffffffffffffff16815260200191505060405180910390f35b3480156108a457600080fd5b506108ad611763565b604051808215151515815260200191505060405180910390f35b3480156108d357600080fd5b506108dc611776565b6040518082815260200191505060405180910390f35b3480156108fe57600080fd5b5061090761177c565b005b34801561091557600080fd5b5061091e611851565b6040518082815260200191505060405180910390f35b34801561094057600080fd5b5061097f600480360381019080803573ffffffffffffffffffffffffffffffffffffffff16906020019092919080359060200190929190505050611857565b604051808215151515815260200191505060405180910390f35b3480156109a557600080fd5b506109fa600480360381019080803573ffffffffffffffffffffffffffffffffffffffff169060200190929190803573ffffffffffffffffffffffffffffffffffffffff169060200190929190505050611a53565b6040518082815260200191505060405180910390f35b348015610a1c57600080fd5b50610a25611ada565b6040518082815260200191505060405180910390f35b348015610a4757600080fd5b50610a50611ae0565b604051808273ffffffffffffffffffffffffffffffffffffffff1673ffffffffffffffffffffffffffffffffffffffff16815260200191505060405180910390f35b6040805190810160405280601281526020017f4c796e6b65642e576f726c6420546f6b656e000000000000000000000000000081525081565b600081600260003373ffffffffffffffffffffffffffffffffffffffff1673ffffffffffffffffffffffffffffffffffffffff16815260200190815260200160002060008573ffffffffffffffffffffffffffffffffffffffff1673ffffffffffffffffffffffffffffffffffffffff168152602001908152602001600020819055508273ffffffffffffffffffffffffffffffffffffffff163373ffffffffffffffffffffffffffffffffffffffff167f8c5be1e5ebec7d5bd14f71427d1e84f3dd0314c0f7b2291e5b200ac8c7c3b925846040518082815260200191505060405180910390a36001905092915050565b6000600154905090565b6000601260009054906101000a900473ffffffffffffffffffffffffffffffffffffffff1673ffffffffffffffffffffffffffffffffffffffff163373ffffffffffffffffffffffffffffffffffffffff161415610c3157610c2a848484611b06565b9050610ec1565b600360009054906101000a900460ff16158015610c9b5750601160009054906101000a900473ffffffffffffffffffffffffffffffffffffffff1673ffffffffffffffffffffffffffffffffffffffff163373ffffffffffffffffffffffffffffffffffffffff16145b8015610cfc57506002600b54811515610cb057fe5b04610cf96000803373ffffffffffffffffffffffffffffffffffffffff1673ffffffffffffffffffffffffffffffffffffffff1681526020019081526020016000205484611ec0565b10155b8015610d1c575060026202a300811515610d1257fe5b04635b6cd57f0142115b15610d3357610d2c848484611b06565b9050610ec1565b600360009054906101000a900460ff16158015610d9d5750600e60009054906101000a900473ffffffffffffffffffffffffffffffffffffffff1673ffffffffffffffffffffffffffffffffffffffff163373ffffffffffffffffffffffffffffffffffffffff16145b8015610dfe57506002600854811515610db257fe5b04610dfb6000803373ffffffffffffffffffffffffffffffffffffffff1673ffffffffffffffffffffffffffffffffffffffff1681526020019081526020016000205484611ec0565b10155b8015610e1e575060026202a300811515610e1457fe5b04635b6cd57f0142115b15610e3557610e2e848484611b06565b9050610ec1565b600360009054906101000a900460ff16158015610e5a57506002610e58336112c8565b145b8015610e695750635b6cd57f42115b15610e8057610e79848484611b06565b9050610ec1565b600360009054906101000a900460ff16158015610ea557506202a300635b6cd57f0142115b15610ebc57610eb5848484611b06565b9050610ec1565b600090505b9392505050565b635b6cd57f81565b60065481565b601281565b60045481565b601160009054906101000a900473ffffffffffffffffffffffffffffffffffffffff1681565b6202a30081565b601260009054906101000a900473ffffffffffffffffffffffffffffffffffffffff1673ffffffffffffffffffffffffffffffffffffffff163373ffffffffffffffffffffffffffffffffffffffff16141515610f6a57600080fd5b601260009054906101000a900473ffffffffffffffffffffffffffffffffffffffff1673ffffffffffffffffffffffffffffffffffffffff163373ffffffffffffffffffffffffffffffffffffffff16141515610fc657600080fd5b6001600360006101000a81548160ff021916908315150217905550565b600080600260003373ffffffffffffffffffffffffffffffffffffffff1673ffffffffffffffffffffffffffffffffffffffff16815260200190815260200160002060008573ffffffffffffffffffffffffffffffffffffffff1673ffffffffffffffffffffffffffffffffffffffff168152602001908152602001600020549050808311156110f4576000600260003373ffffffffffffffffffffffffffffffffffffffff1673ffffffffffffffffffffffffffffffffffffffff16815260200190815260200160002060008673ffffffffffffffffffffffffffffffffffffffff1673ffffffffffffffffffffffffffffffffffffffff16815260200190815260200160002081905550611188565b6111078382611ec090919063ffffffff16565b600260003373ffffffffffffffffffffffffffffffffffffffff1673ffffffffffffffffffffffffffffffffffffffff16815260200190815260200160002060008673ffffffffffffffffffffffffffffffffffffffff1673ffffffffffffffffffffffffffffffffffffffff168152602001908152602001600020819055505b8373ffffffffffffffffffffffffffffffffffffffff163373ffffffffffffffffffffffffffffffffffffffff167f8c5be1e5ebec7d5bd14f71427d1e84f3dd0314c0f7b2291e5b200ac8c7c3b925600260003373ffffffffffffffffffffffffffffffffffffffff1673ffffffffffffffffffffffffffffffffffffffff16815260200190815260200160002060008873ffffffffffffffffffffffffffffffffffffffff1673ffffffffffffffffffffffffffffffffffffffff168152602001908152602001600020546040518082815260200191505060405180910390a3600191505092915050565b60008060008373ffffffffffffffffffffffffffffffffffffffff1673ffffffffffffffffffffffffffffffffffffffff168152602001908152602001600020549050919050565b600c5481565b60085481565b6000601160009054906101000a900473ffffffffffffffffffffffffffffffffffffffff1673ffffffffffffffffffffffffffffffffffffffff168273ffffffffffffffffffffffffffffffffffffffff1614806113735750600e60009054906101000a900473ffffffffffffffffffffffffffffffffffffffff1673ffffffffffffffffffffffffffffffffffffffff168273ffffffffffffffffffffffffffffffffffffffff16145b156113815760019050611386565b600290505b919050565b600a5481565b6040805190810160405280600481526020017f4c594e4b0000000000000000000000000000000000000000000000000000000081525081565b601060009054906101000a900473ffffffffffffffffffffffffffffffffffffffff1681565b600d60009054906101000a900473ffffffffffffffffffffffffffffffffffffffff1681565b600b5481565b600f60009054906101000a900473ffffffffffffffffffffffffffffffffffffffff1681565b6000601260009054906101000a900473ffffffffffffffffffffffffffffffffffffffff1673ffffffffffffffffffffffffffffffffffffffff163373ffffffffffffffffffffffffffffffffffffffff1614156114ab576114a48383611ed9565b9050611737565b600360009054906101000a900460ff161580156115155750601160009054906101000a900473ffffffffffffffffffffffffffffffffffffffff1673ffffffffffffffffffffffffffffffffffffffff163373ffffffffffffffffffffffffffffffffffffffff16145b801561157657506002600b5481151561152a57fe5b046115736000803373ffffffffffffffffffffffffffffffffffffffff1673ffffffffffffffffffffffffffffffffffffffff1681526020019081526020016000205484611ec0565b10155b8015611596575060026202a30081151561158c57fe5b04635b6cd57f0142115b156115ac576115a58383611ed9565b9050611737565b600360009054906101000a900460ff161580156116165750600e60009054906101000a900473ffffffffffffffffffffffffffffffffffffffff1673ffffffffffffffffffffffffffffffffffffffff163373ffffffffffffffffffffffffffffffffffffffff16145b80156116775750600260085481151561162b57fe5b046116746000803373ffffffffffffffffffffffffffffffffffffffff1673ffffffffffffffffffffffffffffffffffffffff1681526020019081526020016000205484611ec0565b10155b8015611697575060026202a30081151561168d57fe5b04635b6cd57f0142115b156116ad576116a68383611ed9565b9050611737565b600360009054906101000a900460ff161580156116d2575060026116d0336112c8565b145b80156116e15750635b6cd57f42115b156116f7576116f08383611ed9565b9050611737565b600360009054906101000a900460ff1615801561171c57506202a300635b6cd57f0142115b156117325761172b8383611ed9565b9050611737565b600090505b92915050565b601260009054906101000a900473ffffffffffffffffffffffffffffffffffffffff1681565b600360009054906101000a900460ff1681565b60075481565b601260009054906101000a900473ffffffffffffffffffffffffffffffffffffffff1673ffffffffffffffffffffffffffffffffffffffff163373ffffffffffffffffffffffffffffffffffffffff161415156117d857600080fd5b601260009054906101000a900473ffffffffffffffffffffffffffffffffffffffff1673ffffffffffffffffffffffffffffffffffffffff163373ffffffffffffffffffffffffffffffffffffffff1614151561183457600080fd5b6000600360006101000a81548160ff021916908315150217905550565b60055481565b60006118e882600260003373ffffffffffffffffffffffffffffffffffffffff1673ffffffffffffffffffffffffffffffffffffffff16815260200190815260200160002060008673ffffffffffffffffffffffffffffffffffffffff1673ffffffffffffffffffffffffffffffffffffffff168152602001908152602001600020546120f890919063ffffffff16565b600260003373ffffffffffffffffffffffffffffffffffffffff1673ffffffffffffffffffffffffffffffffffffffff16815260200190815260200160002060008573ffffffffffffffffffffffffffffffffffffffff1673ffffffffffffffffffffffffffffffffffffffff168152602001908152602001600020819055508273ffffffffffffffffffffffffffffffffffffffff163373ffffffffffffffffffffffffffffffffffffffff167f8c5be1e5ebec7d5bd14f71427d1e84f3dd0314c0f7b2291e5b200ac8c7c3b925600260003373ffffffffffffffffffffffffffffffffffffffff1673ffffffffffffffffffffffffffffffffffffffff16815260200190815260200160002060008773ffffffffffffffffffffffffffffffffffffffff1673ffffffffffffffffffffffffffffffffffffffff168152602001908152602001600020546040518082815260200191505060405180910390a36001905092915050565b6000600260008473ffffffffffffffffffffffffffffffffffffffff1673ffffffffffffffffffffffffffffffffffffffff16815260200190815260200160002060008373ffffffffffffffffffffffffffffffffffffffff1673ffffffffffffffffffffffffffffffffffffffff16815260200190815260200160002054905092915050565b60095481565b600e60009054906101000a900473ffffffffffffffffffffffffffffffffffffffff1681565b60008073ffffffffffffffffffffffffffffffffffffffff168373ffffffffffffffffffffffffffffffffffffffff1614151515611b4357600080fd5b6000808573ffffffffffffffffffffffffffffffffffffffff1673ffffffffffffffffffffffffffffffffffffffff168152602001908152602001600020548211151515611b9057600080fd5b600260008573ffffffffffffffffffffffffffffffffffffffff1673ffffffffffffffffffffffffffffffffffffffff16815260200190815260200160002060003373ffffffffffffffffffffffffffffffffffffffff1673ffffffffffffffffffffffffffffffffffffffff168152602001908152602001600020548211151515611c1b57600080fd5b611c6c826000808773ffffffffffffffffffffffffffffffffffffffff1673ffffffffffffffffffffffffffffffffffffffff16815260200190815260200160002054611ec090919063ffffffff16565b6000808673ffffffffffffffffffffffffffffffffffffffff1673ffffffffffffffffffffffffffffffffffffffff16815260200190815260200160002081905550611cff826000808673ffffffffffffffffffffffffffffffffffffffff1673ffffffffffffffffffffffffffffffffffffffff168152602001908152602001600020546120f890919063ffffffff16565b6000808573ffffffffffffffffffffffffffffffffffffffff1673ffffffffffffffffffffffffffffffffffffffff16815260200190815260200160002081905550611dd082600260008773ffffffffffffffffffffffffffffffffffffffff1673ffffffffffffffffffffffffffffffffffffffff16815260200190815260200160002060003373ffffffffffffffffffffffffffffffffffffffff1673ffffffffffffffffffffffffffffffffffffffff16815260200190815260200160002054611ec090919063ffffffff16565b600260008673ffffffffffffffffffffffffffffffffffffffff1673ffffffffffffffffffffffffffffffffffffffff16815260200190815260200160002060003373ffffffffffffffffffffffffffffffffffffffff1673ffffffffffffffffffffffffffffffffffffffff168152602001908152602001600020819055508273ffffffffffffffffffffffffffffffffffffffff168473ffffffffffffffffffffffffffffffffffffffff167fddf252ad1be2c89b69c2b068fc378daa952ba7f163c4a11628f55a4df523b3ef846040518082815260200191505060405180910390a3600190509392505050565b6000828211151515611ece57fe5b818303905092915050565b60008073ffffffffffffffffffffffffffffffffffffffff168373ffffffffffffffffffffffffffffffffffffffff1614151515611f1657600080fd5b6000803373ffffffffffffffffffffffffffffffffffffffff1673ffffffffffffffffffffffffffffffffffffffff168152602001908152602001600020548211151515611f6357600080fd5b611fb4826000803373ffffffffffffffffffffffffffffffffffffffff1673ffffffffffffffffffffffffffffffffffffffff16815260200190815260200160002054611ec090919063ffffffff16565b6000803373ffffffffffffffffffffffffffffffffffffffff1673ffffffffffffffffffffffffffffffffffffffff16815260200190815260200160002081905550612047826000808673ffffffffffffffffffffffffffffffffffffffff1673ffffffffffffffffffffffffffffffffffffffff168152602001908152602001600020546120f890919063ffffffff16565b6000808573ffffffffffffffffffffffffffffffffffffffff1673ffffffffffffffffffffffffffffffffffffffff168152602001908152602001600020819055508273ffffffffffffffffffffffffffffffffffffffff163373ffffffffffffffffffffffffffffffffffffffff167fddf252ad1be2c89b69c2b068fc378daa952ba7f163c4a11628f55a4df523b3ef846040518082815260200191505060405180910390a36001905092915050565b600080828401905083811015151561210c57fe5b80915050929150505600a165627a7a723058201f955bd6c3fcecb671a5002f08f3a7787031e51290e03b8e31ad158df3cf9aa70029",
  "source": "pragma solidity 0.4.24;\n\nimport './zeppelin-solidity/contracts/token/ERC20/StandardToken.sol';\nimport './zeppelin-solidity/contracts/math/SafeMath.sol';\n\n/**\n *\n * Lynked World LYNK Token\n * Creation Date : 09-Aug-2018\n * by Saravana, TokenSafe.io\n *\n */\n\ncontract LYNKToken is StandardToken {\n\n    string public constant name     = \"Lynked.World Token\"; \n    string public constant symbol   = \"LYNK\";              \n    uint8  public constant decimals = 18;                  \n\n    /*\n    * test settings\n    */\n    uint public constant icoEndDate         = 1533859199;  // 09-Aug-2018 23:59:59 GMT \n    uint public constant SECONDS_IN_YEAR    = 172800;        //  60 * 60 * 24 * 2 = 2 days\n\n    uint constant addressLock   = 1;   // founders, advisors and team\n    uint constant addressNoLock = 2;   // marketing, ICO investors \n\n\n    // flag for emergency stop or start \n    bool  public halted      = false;              \n    uint256  public tokenSold  = 0;\n    uint256  public etherRaised = 0;\n\n\n    uint256 public INITIAL_SUPPLY          = 500000000 * (10 ** uint256(decimals));  // 500,000,000 (500m)\n\n    // tokens allocation details\n    uint256  public tokensRewardsPool      = 300000000 * (10 ** uint256(decimals));   //300,000,000 - (300M) \n\n    uint256  public tokensAdvisorsTeam     =  10000000 * (10 ** uint256(decimals));   // 10,000,000 - (10M ) - lock 50% after 6 months\n    uint256  public tokensSeedInvestors    =  10000000 * (10 ** uint256(decimals));   // 10,000,000 - (10M )\n    uint256  public tokensMarketingBounty  =  10000000 * (10 ** uint256(decimals));   // 10,000,000 - (10M )\n    \n    uint256  public tokensFounders         =  20000000 * (10 ** uint256(decimals));   // 20,000,000 - (20M) - lock 50% after 6 months\n    uint256  public tokensICO              = 150000000 * (10 ** uint256(decimals));  // 150,000,000 - (150M) \n\n\n    /*  \n    *   the following are the testnet addresses\n    *   should be updated with mainnet address\n    *   before deploying the contract\n    *   Note : rinkeby testnet addresses used here for testing\n    */\n\n  \n    address public addressRewardsPool      = 0x50207268ed986ffc756de2fb509c902557e902b4;     \n    address public addressAdvisorsTeam     = 0xdf7e584a74fff446a6141ae342078a828ae65d23;  \n    address public addressSeedInvestors    = 0x0afe6ededb967c7e0b189d7ce9375772be5fe59b;      \n    address public addressMarketingBounty  = 0x9fc1c2f53ebe62d481fb9a2a8a75b09ac7399781;  \n\taddress public addressFounders         = 0x1c59788d7113bbfe04280e3b60c03646d9e449fe; \n    address public addressICOManager       = 0xe784a570e8aec7aab58eb23a7d4db257f11306ca; \n     \n\n    /*\n    * Contract Constructor\n    */\n\n    function LYNKToken() public {\n\n                     totalSupply_ = INITIAL_SUPPLY;              \n\n                     balances[addressRewardsPool]      = tokensRewardsPool;\n   \t\t\t\t\t balances[addressAdvisorsTeam]     = tokensAdvisorsTeam;\n                     balances[addressSeedInvestors]    = tokensSeedInvestors;\n                     balances[addressMarketingBounty]  = tokensMarketingBounty;  \n                     balances[addressFounders]         = tokensFounders;\n                     balances[addressICOManager]       = tokensICO;\n\n                     emit Transfer(this, addressRewardsPool,     tokensRewardsPool);\n                     emit Transfer(this, addressAdvisorsTeam,    tokensAdvisorsTeam);\n                     emit Transfer(this, addressSeedInvestors,   tokensSeedInvestors);\n                     emit Transfer(this, addressMarketingBounty, tokensMarketingBounty);\n                     emit Transfer(this, addressFounders,       tokensFounders);                     \n                     emit Transfer(this, addressICOManager,     tokensICO);  \n            }\n    \n    /**\n    *   Emergency Stop or Start ICO.\n    *\n    */\n\n    function halt() onlyManager public{\n        require(msg.sender == addressICOManager);\n        halted = true;\n    }\n\n    function unhalt() onlyManager public {\n        require(msg.sender == addressICOManager);\n        halted = false;\n    }\n\n    /*\n    *   Check whether ICO running or not.\n    */\n\n    modifier onIcoRunning() {\n        // Checks, if ICO is running and has not been stopped\n        require( halted == false);\n        _;\n    }\n   \n    modifier onIcoStopped() {\n        // Checks if ICO was stopped or deadline is reached\n      require( halted == true);\n        _;\n    }\n\n    modifier onlyManager() {\n        // only ICO manager can do this action\n        require(msg.sender == addressICOManager);\n        _;\n    }\n\n\n     /**\n     * ERC 20 Standard Token interface transfer function\n     *\n     * Prevent transfers until ICO period is over.\n     * \n     * Transfer \n     *    - Allow 50% after six months for Founders and Advisors\n     *    - Allow Investors and Others after ICO end date \n     *\n     * Applicable tests:\n     *\n     * - Test restricted early transfer\n     * - Test transfer after restricted period\n     */\n\n\n   function transfer(address _to, uint256 _value) public returns (bool success) \n    {\n           if ( msg.sender == addressICOManager) { return super.transfer(_to, _value); }           \n\n           // Founders, Advisors and Team can transfer upto 50% of tokens after six months of ICO end date \n           if ( !halted &&  msg.sender == addressFounders &&  SafeMath.sub(balances[msg.sender], _value) >= tokensFounders/2 && (now > icoEndDate + SECONDS_IN_YEAR/2) ) \n                { return super.transfer(_to, _value); }         \n\n           if ( !halted &&  msg.sender == addressAdvisorsTeam &&  SafeMath.sub(balances[msg.sender], _value) >= tokensAdvisorsTeam/2 && (now > icoEndDate + SECONDS_IN_YEAR/2) ) \n                { return super.transfer(_to, _value); }         \n\n           \n           // ICO investors can transfer after the ICO period\n           if ( !halted && identifyAddress(msg.sender) == addressNoLock && now > icoEndDate ) { return super.transfer(_to, _value); }\n           \n           // All can transfer after a year from ICO end date \n           if ( !halted && now > icoEndDate + SECONDS_IN_YEAR) { return super.transfer(_to, _value); }\n\n        return false;\n    }\n\n\n    function transferFrom(address _from, address _to, uint256 _value) public returns (bool success) \n    {\n           if ( msg.sender == addressICOManager) { return super.transferFrom(_from,_to, _value); }\n\n           // Founders, Advisors and Team can transfer upto 50% of tokens after six months of ICO end date \n\n           if ( !halted &&  msg.sender == addressFounders &&  SafeMath.sub(balances[msg.sender], _value) >= tokensFounders/2 && (now > icoEndDate + SECONDS_IN_YEAR/2) )\n                { return super.transferFrom(_from,_to, _value); }\n\n           if ( !halted &&  msg.sender == addressAdvisorsTeam &&  SafeMath.sub(balances[msg.sender], _value) >= tokensAdvisorsTeam/2 && (now > icoEndDate + SECONDS_IN_YEAR/2) ) \n                { return super.transferFrom(_from,_to, _value); }\n\n           \n           // ICO investors can transfer after the ICO period\n           if ( !halted && identifyAddress(msg.sender) == addressNoLock && now > icoEndDate ) { return super.transferFrom(_from,_to, _value); }\n\n           // All can transfer after a year from ICO end date \n           if ( !halted && now > icoEndDate + SECONDS_IN_YEAR) { return super.transferFrom(_from,_to, _value); }\n\n        return false;\n    }\n\n\n   function identifyAddress(address _buyer) constant public returns(uint) {\n        if (_buyer == addressFounders    || _buyer == addressAdvisorsTeam) return addressLock;\n            return addressNoLock;\n    }\n\n\n     /*\n     *  default fall back function      \n     */\n    function () payable public {\n              \n            }\n}",
  "sourcePath": "C:\\saravana\\projects\\Active\\Arun-Belgium\\ICO\\smartcontract\\contracts\\LYNKToken.sol",
  "compiler": {
    "name": "solc",
    "version": "0.4.24+commit.e67f0147.Emscripten.clang"
  },
  "schemaVersion": "2.0.1",
  "updatedAt": "2018-08-09T11:06:56.155Z"
}